:100000000C9434000C943E000C943E000C943E0082
:100010000C943E000C943E000C943E000C943E0068
:100020000C943E000C943E000C943E000C943E0058
:100030000C943E000C943E000C943E000C943E0048
:100040000C943E000C943E000C943E000C943E0038
:100050000C943E000C943E000C943E000C943E0028
:100060000C943E000C943E0011241FBECFEFD8E04C
:10007000DEBFCDBF0E94B2010C948C030C94000033
:100080001BB81BB81BB80895599A589808950E9438
:1000900040005998589A0895811103C05D9A5C9860
:1000A00008955D985C9A08952F923F924F925F92C7
:1000B0006F927F928F929F92AF92BF92CF92DF9278
:1000C000EF92FF920F931F93CF93DF93CDB7DEB7DD
:1000D00060970FB6F894DEBF0FBECDBF9A878987B1
:1000E00010E000E0CB01B0E0A0E08B879C87AD87FB
:1000F000BE8780E9282E33243394A985BA850A1750
:100100001B0709F416C15B9A5A986B857C858D850F
:100110009E850E9468024B015C012BEA3AEA4AEA9A
:1001200050E40E941F036B017C0120E030E040E8B6
:1001300050E4C501B4010E941F032B013C0120E0E3
:1001400030E040E85FE3C701B6010E94C20187FDCD
:10015000C1C020E03FEF4FE757E4C301B2010E9466
:100160001A0318160CF050C020E030E04AE754E4BF
:10017000C501B4010E94C7016D837E838F83988778
:1001800020E030E04AE755E40E941F0369837A8348
:100190008B839C8320E030E040E85FE30E94C20153
:1001A00087FD2FC020E03FEF4FE757E469817A8158
:1001B0008B819C810E941A031816ACF420E030E079
:1001C00040E251E46D817E818F8198850E941F03FA
:1001D0000E9439026115710579F0C1010197F1F7AB
:1001E00061507109F7CF69817A818B819C810E946E
:1001F0003902CB010197F1F78F858A95F1F78F8747
:1002000015C061E070E0F5CF20E030E04FE753E447
:10021000C701B6010E941A0318160CF055C0C3019D
:10022000B2010E943902CB010197F1F75B985A9A0B
:1002300020E030E040E85FE3C701B6010E94C20160
:1002400087FD74C020E03FEF4FE757E4C301B201E0
:100250000E941A0318160CF04FC020E030E04AE765
:1002600054E4C501B4010E94C7014B015C0120E0C8
:1002700030E04AE755E40E941F036B017C0120E057
:1002800030E040E85FE30E94C20187FD32C020E019
:100290003FEF4FE757E4C701B6010E941A03181653
:1002A000E4F420E030E040E251E4C501B4010E94F2
:1002B0001F030E94390261157105B1F0C101019758
:1002C000F1F761507109F7CFC701B6010E943902F9
:1002D0006F8792CFB1E0BF878FCFC701B6010E9471
:1002E0003902CB010197F1F7A889AA95F1F7A88BFC
:1002F00014C061E070E0F5CF20E030E04FE753E458
:10030000C701B6010E941A03181654F4C301B201C2
:100310000E943902CB010197F1F70F5F1F4FEDCE1D
:10032000C701B6010E943902688BDECF91E0988B3D
:10033000DBCF60960FB6F894DEBF0FBECDBFDF9166
:10034000CF911F910F91FF90EF90DF90CF90BF90D2
:10035000AF909F908F907F906F905F904F903F9065
:100360002F9008958FEF8AB91BB858E028EC30E041
:1003700044E05BB9C9010197F1F74BB9C901019795
:10038000F1F7F7CF0E94A50208F481E008950E94DA
:10039000DB010C94E0020E94D90258F00E94D202C4
:1003A00040F029F45F3F29F00C94C90251110C94DC
:1003B00014030C94CF020E94F10268F39923B1F365
:1003C000552391F3951B550BBB27AA27621773077B
:1003D000840738F09F5F5F4F220F331F441FAA1F0F
:1003E000A9F335D00E2E3AF0E0E832D091505040CB
:1003F000E695001CCAF72BD0FE2F29D0660F771F79
:10040000881FBB1F261737074807AB07B0E809F05E
:10041000BB0B802DBF01FF2793585F4F3AF09E3FE3
:10042000510578F00C94C9020C9414035F3FE4F377
:10043000983ED4F3869577956795B795F7959F5F26
:10044000C9F7880F911D9695879597F90895E1E072
:10045000660F771F881FBB1F621773078407BA07D1
:1004600020F0621B730B840BBA0BEE1F88F7E0952C
:1004700008950E94F90288F09F5798F0B92F9927A4
:10048000B751B0F0E1F0660F771F881F991F1AF07F
:10049000BA95C9F714C0B13091F00E941303B1E0CE
:1004A00008950C941303672F782F8827B85F39F0CD
:1004B000B93FCCF3869577956795B395D9F73EF418
:1004C00090958095709561957F4F8F4F9F4F0895C0
:1004D000E89409C097FB3EF49095809570956195DE
:1004E0007F4F8F4F9F4F9923A9F0F92F96E9BB2794
:1004F0009395F695879577956795B795F111F8CF10
:10050000FAF4BB0F11F460FF1BC06F5F7F4F8F4F7A
:100510009F4F16C0882311F096E911C0772321F070
:100520009EE8872F762F05C0662371F096E8862F08
:1005300070E060E02AF09A95660F771F881FDAF75F
:10054000880F9695879597F90895990F0008550F8C
:10055000AA0BE0E8FEEF16161706E807F907C0F049
:1005600012161306E407F50798F0621B730B840B51
:10057000950B39F40A2661F0232B242B252B21F42B
:1005800008950A2609F4A140A6958FEF811D811DCB
:10059000089597F99F6780E870E060E008959FEF05
:1005A00080EC089500240A9416161706180609060A
:1005B000089500240A9412161306140605060895D9
:1005C000092E0394000C11F4882352F0BB0F40F461
:1005D000BF2B11F460FF04C06F5F7F4F8F4F9F4FA1
:1005E000089557FD9058440F551F59F05F3F71F023
:1005F0004795880F97FB991F61F09F3F79F087958A
:100600000895121613061406551FF2CF4695F1DF12
:1006100008C0161617061806991FF1CF86957105A2
:10062000610508940895E894BB2766277727CB01D6
:1006300097F908950E94A50208F48FEF08950E948B
:1006400032030C94E0020E94D20238F00E94D902D8
:1006500020F0952311F00C94C9020C94CF021124C0
:100660000C9414030E94F10270F3959FC1F3950F4F
:1006700050E0551F629FF001729FBB27F00DB11D26
:10068000639FAA27F00DB11DAA1F649F6627B00DB6
:10069000A11D661F829F2227B00DA11D621F739F9F
:1006A000B00DA11D621F839FA00D611D221F749FAD
:1006B0003327A00D611D231F849F600D211D822FF4
:1006C000762F6A2F11249F5750409AF0F1F088231B
:1006D0004AF0EE0FFF1FBB1F661F771F881F915048
:1006E0005040A9F79E3F510580F00C94C9020C942C
:1006F00014035F3FE4F3983ED4F3869577956795AE
:10070000B795F795E7959F5FC1F7FE2B880F911D71
:0C0710009695879597F90895F894FFCF0F
:00000001FF
